{
  "contractName": "Migrations",
  "abi": [
    {
      "inputs": [],
      "stateMutability": "nonpayable",
      "type": "constructor"
    },
    {
      "inputs": [],
      "name": "lastCompletedMigration",
      "outputs": [
        {
          "internalType": "uint256",
          "name": "",
          "type": "uint256"
        }
      ],
      "stateMutability": "view",
      "type": "function",
      "constant": true
    },
    {
      "inputs": [],
      "name": "owner",
      "outputs": [
        {
          "internalType": "address",
          "name": "",
          "type": "address"
        }
      ],
      "stateMutability": "view",
      "type": "function",
      "constant": true
    },
    {
      "inputs": [
        {
          "internalType": "uint256",
          "name": "completed",
          "type": "uint256"
        }
      ],
      "name": "setCompleted",
      "outputs": [],
      "stateMutability": "nonpayable",
      "type": "function"
    },
    {
      "inputs": [
        {
          "internalType": "address",
          "name": "new_address",
          "type": "address"
        }
      ],
      "name": "upgrade",
      "outputs": [],
      "stateMutability": "nonpayable",
      "type": "function"
    }
  ],
  "bytecode": "0x608060405234801561001057600080fd5b50600080546001600160a01b03191633179055610266806100326000396000f3fe608060405234801561001057600080fd5b506004361061004c5760003560e01c80630900f010146100515780638da5cb5b14610066578063fbdbad3c14610096578063fdacd576146100ad575b600080fd5b61006461005f3660046101e7565b6100c0565b005b600054610079906001600160a01b031681565b6040516001600160a01b0390911681526020015b60405180910390f35b61009f60015481565b60405190815260200161008d565b6100646100bb366004610217565b610188565b6000546001600160a01b0316331461011f5760405162461bcd60e51b815260206004820152601c60248201527f5265737472696374656420746f20636f6e7472616374206f776e65720000000060448201526064015b60405180910390fd5b600154604051637ed66abb60e11b815282916001600160a01b0383169163fdacd576916101529160040190815260200190565b600060405180830381600087803b15801561016c57600080fd5b505af1158015610180573d6000803e3d6000fd5b505050505050565b6000546001600160a01b031633146101e25760405162461bcd60e51b815260206004820152601c60248201527f5265737472696374656420746f20636f6e7472616374206f776e6572000000006044820152606401610116565b600155565b6000602082840312156101f957600080fd5b81356001600160a01b038116811461021057600080fd5b9392505050565b60006020828403121561022957600080fd5b503591905056fea26469706673582212201e3a896696c4dc747a7396f025a70620b9c7467c8e1b452a3b66e11cfe14b43564736f6c63430008130033",
  "immutableReferences": {},
  "source": "pragma solidity ^0.8.19;\r\n\r\ncontract Migrations {\r\n    address public owner;\r\n    uint256 public lastCompletedMigration;\r\n\r\n    constructor() {\r\n        owner = msg.sender;\r\n    }\r\n\r\n    modifier restricted() {\r\n        require(msg.sender == owner, \"Restricted to contract owner\");\r\n        _;\r\n    }\r\n\r\n    function setCompleted(uint256 completed) public restricted {\r\n        lastCompletedMigration = completed;\r\n    }\r\n\r\n    function upgrade(address new_address) public restricted {\r\n        Migrations upgraded = Migrations(new_address);\r\n        upgraded.setCompleted(lastCompletedMigration);\r\n    }\r\n}",
  "sourcePath": "J:\\UXJairoPortafolio\\blockchainxd\\Lukatoni-token\\lucatoni\\contracts\\Migrations.sol",
  "compiler": {
    "name": "solc",
    "version": "0.8.19+commit.7dd6d404.Emscripten.clang"
  },
  "schemaVersion": "3.4.13",
  "updatedAt": "2025-01-21T09:48:18.582Z",
  "networkType": "ethereum",
  "devdoc": {
    "kind": "dev",
    "methods": {},
    "version": 1
  },
  "userdoc": {
    "kind": "user",
    "methods": {},
    "version": 1
  }
}